:020000040800F2
:10000000280400204501000881120008831200081E
:10001000871200088B1200088F12000800000000F1
:100020000000000000000000000000009312000823
:1000300095120008000000009712000899120008AD
:100040005F0100085F0100085F0100085F01000810
:100050005F0100085F0100085F0100085F01000800
:100060005F0100085F0100085F0100085F010008F0
:100070005F0100085F0100085F0100085F010008E0
:100080005F0100085F0100085F0100085F010008D0
:100090005F0100085F0100085F0100085F010008C0
:1000A0005F0100085F0100085F0100085F010008B0
:1000B0005F0100085F0100085F0100085F010008A0
:1000C0005F0100085F0100085F0100085F01000890
:1000D0005F0100085F0100085F0100085F01000880
:1000E0005F0100085F0100085F0100085F01000870
:1000F0005F0100085F0100085F0100085F01000860
:100100005F0100085F0100085F0100085F0100084F
:100110005F0100085F0100085F0100085F0100083F
:100120005F0100085F0100085F0100085F0100082F
:10013000DFF80CD001F080FC004800475D1100089A
:10014000280400200648804706480047FEE7FEE7EF
:10015000FEE7FEE7FEE7FEE7FEE7FEE7FEE7FEE777
:1001600047020008310100080CB500200190009002
:100170006C48006840F480306A49086000BF6948F4
:10018000006800F4003000900198401C0190009835
:1001900018B90198B0F5A06FF1D16248006800F479
:1001A000003010B10120009001E000200090009884
:1001B000012843D15C48006840F010005A490860AB
:1001C0000846006820F0030008600846006840F018
:1001D0000200086053484068524948600846406839
:1001E00048600846406840F48060486008464068BF
:1001F00020F47C1048600846406840F4E8104860ED
:100200000846006840F08070086000BF45480068FC
:1002100000F000700028F9D04248406820F0030048
:10022000404948600846406840F00200486000BF0E
:100230003C48406800F00C000828F9D10CBD10B50E
:10024000FFF792FF10BD10B53648006840F001007E
:1002500034490860084640683449084031494860DC
:1002600008460068324908402E4908600846006880
:1002700020F4802008600846406820F4FE004860B2
:100280004FF41F008860FFF7DAFF4FF00060294944
:10029000086010BD10B5002100200022214B5B68D2
:1002A00003F00C0121B1042906D0082928D107E068
:1002B000214B224C236027E01F4B204C236023E07E
:1002C000184B5B6803F47010164B5B6803F48032C4
:1002D000022303EB904022B9194B4343174C236090
:1002E0000DE0104B5B6803F4003323B1144B434320
:1002F000124C236003E0104B4343104C236003E097
:100300000D4B0E4C236000BF00BF064B5B68C3F370
:1003100003130C4CE15C094B1B68CB40074C23607A
:1003200010BD000000100240002002400000FFF855
:10033000FFFFF6FE08ED00E000127A00000000204A
:1003400000093D000400002010B50446CC4884425A
:1003500008D10121042000F02DFB0021042000F031
:1003600029FB46E0C748844208D10121082000F05B
:1003700021FB0021082000F01DFB3AE0C248844226
:1003800008D10121102000F015FB0021102000F001
:1003900011FB2EE0BD48844208D10121202000F04D
:1003A00009FB0021202000F005FB22E0B848844230
:1003B00008D10121402000F0FDFA0021402000F08A
:1003C000F9FA16E0B348844208D10121802000F0F8
:1003D000F1FA0021802000F0EDFA0AE0AE488442F4
:1003E00007D10121801500F0E5FA0021A01500F0E9
:1003F000E1FA10BD10B50121084600F0DBFA00213A
:10040000012000F0D7FA10BD2DE9F0410246002589
:100410000026002000230024002791F803C00CF0E0
:100420000F0591F803C00CF0100CBCF1000F03D0C5
:1004300091F802C04CEA050591F800C0BCF1000F2C
:1004400031D0146800202BE04FF0010C0CFA00F3BF
:10045000B1F800C00CEA03069E4220D183004FF0A1
:100460000F0C0CFA03F7BC4305FA03FC4CEA040436
:1004700091F803C0BCF1280F06D14FF0010C0CFA23
:1004800000FCC2F814C00AE091F803C0BCF1480FA8
:1004900005D14FF0010C0CFA00FCC2F810C0401C52
:1004A0000828D1D31460B1F800C0BCF1FF0F34DDCF
:1004B000546800202EE000F1080C4FF0010808FA03
:1004C0000CF3B1F800C00CEA03069E4221D1830070
:1004D0004FF00F0C0CFA03F7BC4305FA03FC4CEA8F
:1004E000040491F803C0BCF1280F05D100F1080CF9
:1004F00008FA0CF8C2F8148091F803C0BCF1480F58
:1005000007D100F1080C4FF0010808FA0CF8C2F806
:100510001080401C0828CED35460BDE8F0814FF60F
:10052000FF710180022181700421C1707047024671
:10053000002093680B400BB1012000E000207047C1
:100540000146886880B2704702460020D3680B409D
:100550000BB1012000E0002070470146C86880B25E
:10056000704701617047416170470AB1016100E065
:1005700041617047C16070474FF480320A43826125
:100580008161826182698269704702460020434B23
:1005900018684FF68073184040EA021008433F4B3A
:1005A000186070473E49C8617047F0B50A4600239D
:1005B00000240021002500F00046B6F1004F02D1D2
:1005C000364EF16901E0354E7168C0F3034583B2E0
:1005D00000F44016B6F5401F08D121F070612F4E8F
:1005E000766826F070662D4F7E6012E000F480166B
:1005F000B6F5801F06D1032606FA05F4A14341F0A3
:10060000706106E0460D360103FA06F6B14341F08B
:10061000706122B1460D360103FA06F6314300F04F
:100620000046B6F1004F02D11C4EF16101E01B4EB5
:100630007160F0BD30B500228B071C0F0F2303FA49
:1006400004F2164B08338C1053F824309343134CA8
:1006500008348D1044F8253023468C1053F824308C
:100660008C07240F00FA04F423430C4C08348D103B
:1006700044F8253030BD0A49DC310860704700007D
:1006800000080140000C014000100140001401402E
:1006900000180140001C0140002001400000014002
:1006A00000002042DF48006840F00100DD4908609A
:1006B00008464068DC490840DA4948600846006856
:1006C000DA490840D74908600846006820F48020CD
:1006D00008600846406820F4FE0048604FF41F00A0
:1006E00088607047CF49096821F48031CD4A116094
:1006F0001146096821F480211160B0F5803F03D0D4
:10070000B0F5802F0ED106E0C649096841F480316A
:10071000C44A116007E0C349096841F4A021C14AF5
:10072000116000E000BF00BF704710B50146002215
:10073000002300204A11012A02D1BA4C236806E0A6
:10074000022A02D1B74C236A01E0B64C636A01F079
:100750001F02012494401C400CB1012000E0002045
:1007600010BD38B5002000900024002500BF3120C6
:10077000FFF7DBFF05460098401C00900098B0F59D
:10078000A06F01D0002DF2D03120FFF7CEFF08B1CD
:10079000012400E00024204638BD01460020A14A83
:1007A000106820F0F80040EAC10010607047A049CE
:1007B00008607047024600209A4B586820F47C106D
:1007C00042EA01031843974B5860704798490866FE
:1007D000704701460020934A506820F00300084308
:1007E000506070478F48406800F00C007047014629
:1007F00000208C4A506820F0F00008435060704799
:1008000001460020874A506820F4E06008435060A9
:10081000704701460020834A506820F4605040EA47
:10082000C1005060704729B17E4A527A02437D4B25
:100830005A7204E07B4A527A82437A4B5A7270476A
:100840007B49D8310860704701460020754A5068DE
:1008500020F440400843506070470021714A203224
:100860001170704A82F82010012802D004280AD1A1
:1008700004E001216B4A2032117005E00521694A2C
:100880002032117000E000BF00BF70476949086066
:1008900070476449096A0143624A116270476549B9
:1008A00044390860704730B500210022002400233D
:1008B0005C4D6D6805F00C0121B1042905D00829B3
:1008C00023D105E05C4D056022E05B4D05601FE033
:1008D000544D6D6805F47012524D6D6805F4803406
:1008E000022505EB92421CB9544D554305600BE0BF
:1008F0004C4D6D6805F400351DB1504D55430560F4
:1009000002E04D4D5543056002E04B4D056000BFD0
:1009100000BF444D6D6805F0F0010909484D6B5C5E
:100920000568DD4045603F4D6D6805F4E061090AEA
:10093000434D6B5C4568DD4085603A4D6D6805F45C
:100940006051C90A3E4D6B5C4568DD40C560354D60
:100950006D6805F44041890B3A4D6B5CC568B5FB89
:10096000F3F5056130BD29B12E4A526902432D4B82
:100970005A6104E02B4A526982432A4B5A617047FC
:1009800029B1284A92690243264B9A6104E0254A1C
:1009900092698243234B9A61704729B1214AD269F7
:1009A0000243204BDA6104E01E4AD26982431D4BA8
:1009B000DA61704729B11B4AD2680243194BDA60E9
:1009C00004E0184AD2688243164BDA60704729B1B6
:1009D000144A12690243134B1A6104E0114A126966
:1009E0008243104B1A6170471249403908607047C2
:1009F0000F49C86470470B49C87170470948406A7D
:100A000040F0807007494862704701460020054A5F
:100A100092680A400AB1012000E0002070470149B5
:100A200088727047001002400000FFF8FFFFF6FEDA
:100A3000000042428004424200127A0000093D0058
:100A4000140000202400002010B50446BE48844253
:100A500008D101218014FFF7ADFF0021A014FFF79A
:100A6000A9FF16E0B948844208D101210014FFF71C
:100A7000AEFF00212014FFF7AAFF0AE0B448844229
:100A800007D10121C013FFF7A2FF0021E013FFF7F8
:100A90009EFF10BD10B50022028802F441520B885F
:100AA0004C8823438C882343CC8823430C892343DD
:100AB0004C8923438C892343CC8923431A430280E6
:100AC000838B4FF2FF74234083830B8A038210BD14
:100AD0002DE9F04F85B005460C464FF0000902277E
:100AE0004FF000084FF0010B0026B246A88B4FF2E2
:100AF00040010840A88302202884B5F81C90A06813
:100B0000022801D100BF38E0A08810B94FF0010BD6
:100B100001E04FF0020B8D48854200D100E000BF9C
:100B20006846FFF7C0FEDDF800A0E088B0F5007F62
:100B30000AD14FEA1A2000EB80004000A168B0FB08
:100B4000F1F0401D86B20BE04FEA4B10BAFBF0F01B
:100B500000EB80004000A168B0FBF1F0401D86B2C0
:100B60000A20B6FBF0F606F00108A6EB0800C0F379
:100B70004F074FF6FF7000EA0828022F01DBFF2F16
:100B800002DD02274FF00008E08840EA0800384301
:100B90002884A088A18908436188084321880843E4
:100BA00040F4006040EA0909A5F81C9005B0BDE8D2
:100BB000F08F0021018041808180C18001814181CD
:100BC0008181C1810721018270470021018041801C
:100BD0008180C1800221816000218181704721B123
:100BE000028842F04002028004E002884FF6BF73A0
:100BF0001A400280704721B1828B42F48062828366
:100C000004E0828B4FF6FF331A408283704730B581
:100C1000002400230C110125A540ABB21AB1858830
:100C20001D43858002E085889D43858030BD1AB1D3
:100C300083880B43838002E083888B4383807047E3
:100C4000818170470146888970474FF6FF62914263
:100C500004D0028842F48072028004E002884FF6D9
:100C6000FF631A400280704721B1828842F004027B
:100C7000828004E082884FF6FB731A4082807047BE
:100C800002884FF2FF731A40028002880A430280F2
:100C90007047018841F480510180704721B102887A
:100CA00042F40052028004E002884DF6FF731A40BD
:100CB0000280704702460020012901D0108B00E01D
:100CC000908A70470146088A7047B1F5804F04D179
:100CD000028842F48042028004E002884BF6FF73EF
:100CE0001A40028070470246002013890B400BB166
:100CF000012000E000207047CA4302817047F0B530
:100D00000246002000240023002501F00F070126E1
:100D1000BE40B4B20B1101269E40B3B2968806EADB
:100D200003051689264016B10DB1012000E0002010
:100D3000F0BD10B5002201F00F040123A3409AB2C8
:100D4000D343038110BD0000003001400038004053
:100D5000003C004010B50446FB48844209D1012103
:100D60008803FFF727FE00214FF48040FFF722FEA3
:100D700032E0F648844209D101214804FFF727FEFA
:100D800000214FF40030FFF722FE25E0F0488442B6
:100D900009D101218804FFF71AFE00214FF48020B9
:100DA000FFF715FE18E0EB48844209D10121C80481
:100DB000FFF70DFE00214FF40020FFF708FE0BE0C7
:100DC000E548844208D101210805FFF700FE002113
:100DD0004FF48010FFF7FBFD10BD2DE9F04786B002
:100DE00005460E460024A24600BFA1460027B08952
:100DF00000B100BF2F462C8A4CF6FF700440F088EB
:100E000004432C82AC894EF6F3100440B08831893B
:100E10000843718908430443AC81AC8A4FF6FF4014
:100E20000440B0890443AC8201A8FFF73CFDC648EA
:100E3000874202D1DDF810A001E0DDF80CA0A889FE
:100E400000F4004040B10AEBCA0000EB0A10316820
:100E50004900B0FBF1F807E00AEBCA0000EB0A100A
:100E600031688900B0FBF1F86420B8FBF0F00401B0
:100E70002009642101FB1089A88900F4004040B1D9
:100E8000322000EBC900B0FBF1F000F00700044392
:100E900008E0322000EB09106421B0FBF1F000F013
:100EA0000F0004432C8106B0BDE8F0874FF41651C3
:100EB000016000218180C18001810C2141810021DC
:100EC0008181704710B502460020108A4FF2FF035F
:100ED00018400B884C8823438C882343CC882343B9
:100EE0001843108210BD0021018041808180C180A3
:100EF000704721B1828942F40052828104E08289E4
:100F00004DF6FF731A4082817047F0B50346002406
:100F100000260025002040F66A17B94200D100BF24
:100F20001846C1F3421401F01F06012707FA06F51F
:100F3000012C01D10C3004E0022C01D1103000E072
:100F400014301AB107682F43076002E00768AF4307
:100F50000760F0BD1AB1838A0B43838202E0838A63
:100F60008B4383827047028A4FF6F0731A400282E5
:100F7000028A0A430282704782894FF2FF731A4045
:100F8000828182890A438281704721B1828942F03D
:100F90000202828104E082894FF6FD731A40828149
:100FA0007047028A4FF6DF731A400282028A0A43B0
:100FB0000282704721B1028A42F48042028204E038
:100FC000028A4BF6FF731A4002827047C1F308028F
:100FD0008280704701468888C0F308007047818985
:100FE00041F0010181817047028BD2B20283028BF2
:100FF00042EA012202837047028B02F47F4202839D
:10100000028B0A430283704721B1828A42F0200298
:10101000828204E0828A4FF6DF731A408282704730
:1010200021B1828A42F01002828204E0828A4FF665
:10103000EF731A408282704721B1828A42F008021F
:10104000828204E0828A4FF6F7731A4082827047E8
:1010500021B1828942F40042828103E08289C2F395
:101060000E028281704721B1828A42F4006282823C
:1010700004E0828A4FF2FF731A4082827047828AAC
:101080004FF6FB731A408282828A0A43828270473B
:1010900021B1828A42F00202828204E0828A4FF603
:1010A000FD731A408282704702460020B1F5007F2E
:1010B00000D100BF13880B400BB1012000E00020DD
:1010C000704701F40072B2F5007F00D100BFCA433F
:1010D0000280704770B502460024002300250020DE
:1010E00040F66A16B14200D100BFC1F3421501F0CB
:1010F0001F03012606FA03F3012D02D1968933401E
:1011000006E0022D02D1168A334001E0968A334070
:101110000C12012606FA04F41688344013B10CB1FF
:10112000012000E0002070BD10B50022002340F631
:101130006A14A14200D100BF0A1201249440A3B254
:10114000DC43048010BD0000003801400044004032
:1011500000480040004C004000500040002504249E
:1011600000F09CF800F0A8F900F00BFC77E00122F9
:10117000D102404800F039FCC0B93E48C06880F058
:1011800020003C49C860012C01D1082401E0601E08
:10119000C4B24FF480513848FFF7E5F9204600F01B
:1011A000E9F94FF480513448FFF7DBF9012291024D
:1011B000304800F01AFCC0B92E48C06880F020000A
:1011C0002C49C860082C01D1012401E0601CC4B284
:1011D0004FF480512848FFF7C6F9204600F0CAF9BD
:1011E0004FF480512448FFF7BCF901221103214834
:1011F00000F0FBFBC0B90DB9012000E0002005465E
:101200001D480C30006880F001001B490C3108605B
:1012100089141948FFF7A7F9AA2000F0ABF94FF499
:1012200080511548FFF79DF901220421134800F071
:10123000DCFBA0B9002510480C30006880F00100EC
:101240000D490C31086089140B48FFF78CF9FF2019
:1012500000F090F94FF480510748FFF782F986E7D4
:1012600001B502E00098401E009000980028F9D1D6
:1012700008BD000000100140000C014000140140B6
:10128000704700BFFEE700BFFEE700BFFEE700BFFC
:10129000FEE77047704770477047000000B585B0A3
:1012A000012144F20400FFF76BFB4FF40070ADF82E
:1012B000100018208DF8130003208DF8120004A9E7
:1012C0007B48FFF7A1F84FF48060ADF810000420D0
:1012D0008DF8130004A97648FFF796F84FF4E13033
:1012E00000900020ADF80400ADF80600ADF808004D
:1012F000ADF80C000C20ADF80A0069466D48FFF708
:101300006CFD01216B48FFF7F4FD05B000BD70B521
:1013100004460D46E1B26748FFF758FE00BF802142
:101320006448FFF7C1FE0028F9D0204670BD10B513
:10133000044600BF20215F48FFF7B6FE0028F9D021
:101340005C48FFF747FE10BDF0B503460D46164654
:10135000002729460A2E03D0002008702846F0BD39
:1013600033B9302001F8010B002008702846F6E759
:10137000002B03DA2D2001F8010B5B4242F21072C0
:101380000DE093FBF2F404B937B104F1300001F839
:10139000010B04FB123301270A2092FBF0F2002A12
:1013A000EFDC002008702846D9E70FB470B586B08E
:1013B00006460CA8019073E00B9800785C281CD1BD
:1013C0000B98401C0B9000786E2809D072280FD122
:1013D0000D213046FFF7FAFD0B98401C0B900BE0F7
:1013E0000A213046FFF7F2FD0B98401C0B9003E0FA
:1013F0000B98401C0B9000BF4BE00B980078252801
:1014000040D10B98401C0B900078642818D07328AA
:1014100033D1019810C801900BE021783046FFF7D6
:10142000D5FD00BF80213046FFF73EFE0028F9D0F1
:10143000641C20780028F0D10B98401C0B9020E011
:10144000019820C801900A2202A92846FFF77CFFD4
:1014500002AC0BE021783046FFF7B8FD00BF8021D9
:101460003046FFF721FE0028F9D0641C20780028C0
:10147000F0D10B98401C0B9003E00B98401C0B9094
:1014800000BF06E00B9810F8011B0B903046FFF7E9
:101490009DFD00BF80213046FFF706FE0028F9D0F1
:1014A0000B980078002887D106B070BC5DF814FB5B
:1014B000000801400038014000B587B00121082034
:1014C000FFF75EFA01218803FFF767FA4FF4005037
:1014D000ADF8040003208DF8060018208DF80700F1
:1014E00001A9FE48FEF790FF4FF48040ADF80400DC
:1014F00001A9FA48FEF788FF4FF40040ADF8040058
:1015000001A9F648FEF780FF4FF48050ADF80400C3
:1015100010208DF8070001A9F048FEF775FF4FF481
:101520008051EE48FFF71DF80020ADF808004FF499
:101530008270ADF80A000020ADF80C000220ADF872
:101540000E000120ADF810004002ADF81200082096
:10155000ADF814000020ADF816000720ADF8180013
:1015600002A9DF48FFF796FA0121DD48FFF737FBB4
:1015700007B000BD10B5044600BF0221D848FFF7F0
:10158000B2FB0028F9D02146D548FFF759FB00BF30
:101590000121D348FFF7A7FB0028F9D0D048FFF777
:1015A00051FBC0B210BD10B500244FF48051CB48A0
:1015B000FEF7D9FF0520FFF7DDFF00BFFF20FFF793
:1015C000D9FF044604F001000028F7D14FF4805100
:1015D000C248FEF7C6FF10BD10B54FF48051BF489A
:1015E000FEF7C1FF0620FFF7C5FF4FF48051BB484F
:1015F000FEF7B7FF10BD10B50446FFF7EDFFFFF78C
:10160000D2FF4FF48051B548FEF7ADFF2020FFF721
:10161000B1FFC4F30740FFF7ADFFC4F30720FFF7A6
:10162000A9FFE0B2FFF7A6FF4FF48051AB48FEF7E9
:1016300098FFFFF7B8FF10BD10B5FFF7CDFF4FF4CF
:101640008051A648FEF78FFFC720FFF793FF4FF4A6
:101650008051A248FEF785FFFFF7A5FF10BD70B5CA
:1016600005460C461646FFF7B7FF4FF480519B48DE
:10167000FEF779FF0220FFF77DFFC4F30740FFF775
:1016800079FFC4F30720FFF775FFE0B2FFF772FFA1
:10169000B6F5807F01DD4FF4807603E02878FFF710
:1016A00069FF6D1C3000A6F101018EB2F6D14FF436
:1016B00080518A48FEF755FFFFF775FF70BD2DE991
:1016C000F05F07460E4614464FF00008C146C2467A
:1016D0000025AB4606F0FF0ACAF10000C5B220465D
:1016E000E11704EB1161C1F30728E11704EB116165
:1016F0000912A4EB012101F0FF09BAF1000F20D17A
:10170000B8F1000F05D1224631463846FFF7A7FF52
:1017100064E009E04FF4807231463846FFF79FFFDE
:1017200006F5807607F580775FEA0800A8F10101E9
:1017300001F0FF08EED14A4631463846FFF78FFFE9
:101740004CE0B8F1000F18D1A94510DDA9EB050058
:1017500000F0FF0B2A4631463846FFF780FF2E4443
:101760002F445A4631463846FFF779FF36E0224685
:1017700031463846FFF773FF30E0601B84B22046E5
:10178000E11704EB1161C1F30728E11704EB1161C4
:101790000912A4EB012101F0FF092A46314638461F
:1017A000FFF75DFF2E442F4409E04FF4807231466D
:1017B0003846FFF754FF06F5807607F580775FEA35
:1017C0000800A8F1010101F0FF08EED1B9F1000F06
:1017D00004D04A4631463846FFF741FFBDE8F09F46
:1017E00070B505460C4616464FF480513B48FEF74F
:1017F000BAFE0320FFF7BEFEC4F30740FFF7BAFEB0
:10180000C4F30720FFF7B6FEE0B2FFF7B3FE04E033
:10181000FF20FFF7AFFE28706D1C3000A6F101011C
:101820008EB2F5D14FF480512C48FEF79AFE70BD70
:101830002DE9F04100240025002600274FF48051B7
:101840002648FEF790FE9F20FFF794FEFF20FFF74B
:1018500091FE0546FF20FFF78DFE0646FF20FFF7AD
:1018600089FE07464FF480511C48FEF77AFE280493
:1018700040EA062040EA07042046BDE8F08110B5A2
:1018800000244FF480511548FEF76DFEAB20FFF7A2
:1018900071FEFF20FFF76EFEFF20FFF76BFEFF20BB
:1018A000FFF768FEFF20FFF765FE04464FF4805106
:1018B0000A48FEF756FE204610BD10B504464FF408
:1018C00080510648FEF74FFE0320FFF753FEC4F396
:1018D0000740FFF74FFEC4F3072003E0000C014070
:1018E00000380040FFF746FEE0B2FFF743FE10BDB0
:1018F00010B5FF20FFF73EFE10BD10B5044600BF37
:1019000002211948FFF7EFF90028F9D021461648BF
:10191000FFF796F900BF01211348FFF7E4F900280B
:10192000F9D01148FFF78EF910BD10B54FF4805172
:101930000E48FEF718FEB920FFF71CFE4FF4805149
:101940000A48FEF70EFE10BD10B54FF4805107484F
:10195000FEF709FEAB20FFF70DFE4FF48051034860
:10196000FEF7FFFD10BD000000380040000C0140F4
:1019700001B502E00098401E009000980028F9D1BF
:1019800008BD08B501213820FEF7FAFF2020ADF888
:10199000000010208DF8030003208DF80200694636
:1019A0002248FEF731FD0120ADF8000069462048CD
:1019B000FEF72AFD4FF4E050ADF8000048208DF806
:1019C000030069461948FEF71FFD0420ADF800002A
:1019D00069461848FEF718FD20211448FEF7C1FD9E
:1019E00001211348FEF7BDFD08BD70B505460E4642
:1019F000144631462846FEF79AFDA04214D142F221
:101A00001070FFF7B5FF31462846FEF790FDA04263
:101A100008D100BF31462846FEF789FDA042F9D023
:101A2000002070BD0120FCE70120FAE70010014012
:101A3000000C014000140140064C074D06E0E06830
:101A400040F0010394E8070098471034AC42F6D305
:101A5000FEF772FB7C1A00089C1A000802E008C816
:101A6000121F08C1002AFAD170477047002001E018
:101A700001C1121F002AFBD1704700009C1A000808
:101A800000000020280000005C1A0008C41A0008AA
:101A900028000020000400006C1A000800A24A047C
:101AA000000000000000000001020304060708090E
:101AB00000000000010203040102030406070809F4
:041AC000020406080E
:0400000508000131BD
:00000001FF
